:0400000048EF83F052
:10FDD4000000C0C101C30302C2C60607C705C5C4EB
:10FDE40004CC0C0DCD0FCFCE0E0ACACB0BC909081B
:10FDF400C8D81819D91BDBDA1A1EDEDF1FDD1D1C5B
:10FE0400DC14D4D515D71716D6D21213D311D1D0EA
:10FE140010F03031F133F3F23236F6F737F535348A
:10FE2400F43CFCFD3DFF3F3EFEFA3A3BFB39F9F85A
:10FE34003828E8E929EB2B2AEAEE2E2FEF2DEDECFA
:10FE44002CE42425E527E7E62622E2E323E121202A
:10FE5400E0A06061A163A3A26266A6A767A565642A
:10FE6400A46CACAD6DAF6F6EAEAA6A6BAB69A9A89A
:10FE74006878B8B979BB7B7ABABE7E7FBF7DBDBCDA
:10FE84007CB47475B577B7B67672B2B373B171706A
:10FE9400B0509091519353529296565797559594CA
:10FEA400549C5C5D9D5F9F9E5E5A9A9B5B995958DA
:10FEB40098884849894B8B8A4A4E8E8F4F8D4D4C7A
:10FEC4008C448485458747468682424383418180AA
:10FED4004000C1814001C0804101C0804100C18116
:10FEE4004001C0804100C1814000C1814001C08007
:10FEF4004101C0804100C1814000C1814001C080F6
:10FF04004100C1814001C0804101C0804100C181E4
:10FF14004001C0804100C1814000C1814001C080D6
:10FF24004100C1814001C0804101C0804100C181C4
:10FF34004000C1814001C0804101C0804100C181B5
:10FF44004001C0804100C1814000C1814001C080A6
:10FF54004101C0804100C1814000C1814001C08095
:10FF64004100C1814001C0804101C0804100C18184
:10FF74004000C1814001C0804101C0804100C18175
:10FF84004001C0804100C1814000C1814001C08066
:10FF94004100C1814001C0804101C0804100C18154
:10FFA4004001C0804100C1814000C1814001C08046
:10FFB4004101C0804100C1814000C1814001C08035
:10FFC4004100C1814001C0804101C0804100C18124
:10FFD4004001000A006400E8031027256425642F0B
:10FFE400256425642F256425642000256425643A4E
:0CFFF400256425643A2564256420000083
:020000040001F9
:10000000000E2C6E010E2B6E000E966E95928C9249
:1000100017EC83F0040E256EE40EE82EFED7252E95
:10002000FCD700D031EC84F0800E0F6E250E106EE0
:10003000000E116E000E126E64EC82F02DEC84F056
:10004000000E7BEC83F03A6E010E7BEC83F0396E90
:10005000020E7BEC83F0386E030E7BEC83F0376E80
:10006000040E7BEC83F0366E050E7BEC83F0356E70
:10007000060E7BEC83F0346E880EB6EC83F0880EAF
:100080000D6E000E0E6EEF0E0F6EFF0E106E3850DE
:100090001BEC84F0256E2550116E126A385024EC4A
:1000A00084F0266E2650136E146A39501BEC84F0CF
:1000B000276E2750156E166A395024EC84F0286E8E
:1000C0002850176E186A3A501BEC84F0296E29509C
:1000D000196E1A6A3A5024EC84F02A6E2A501B6E6C
:1000E0001C6A04EC81F0880E036E000E046E63EC53
:1000F00083F08BEF80F0880E2C24D96EDA6A000E24
:10010000DA22DF50F5EC83F00D0E256EFC0EE82EA2
:10011000FED7252EFCD7880E2C24D96EDA6A000E65
:10012000DA22DF50D8B497EF80F099EF80F0A1EF9A
:1001300080F0200E2C649FEF80F0A1EF80F07BEF29
:1001400080F0C80EB6EC83F0880E0D6E000E0E6EB9
:10015000DF0E0F6EFF0E106E36501BEC84F0256E16
:100160002550116E126A365024EC84F0266E26500B
:10017000136E146A35501BEC84F0276E2750156EF1
:10018000166A355024EC84F0286E2850176E186AD1
:1001900034501BEC84F0296E2950196E1A6A3450C1
:1001A00024EC84F02A6E2A501B6E1C6A04EC81F049
:1001B000EAEF80F0880E2C24D96EDA6A000EDA227B
:1001C000DF50F5EC83F00D0E256EFC0EE82EFED709
:1001D000252EFCD7880E2C24D96EDA6A000EDA227E
:1001E000DF50D8B4F6EF80F0F8EF80F020EF80F029
:1001F000200E2C64FEEF80F000EF81F0DAEF80F04B
:1002000020EF80F000EF00F0110E1E6E000E1F6E4A
:10021000C4EF81F0250E2418D8B411EF81F013EF4C
:1002200081F01DEF81F00DC0D9FF0EC0DAFF24C0B0
:10023000DFFF0D4A0E2AC4EF81F0000E206E0FC0C2
:10024000F6FF10C0F7FF0F4A102A000EF86E0800E4
:10025000F5CF24F02450000AD8B4D7EF81F0640A17
:10026000D8B439EF81F00D0AD8B439EF81F0C4EF7A
:1002700081F01EC0D9FF1FC0DAFFDECF22F0DDCF34
:1002800023F0020E1E26000E1F2223BE4CEF81F02B
:100290004AEF81F052EF81F0030E2012226C231EF0
:1002A000D8B0232A010E246E2450020DD50EF3245B
:1002B000F66EFF0EF420F76EF86A000EF8220900C1
:1002C000F550225C0900F5502358D8B06AEF81F050
:1002D0006CEF81F06EEF81F078EF81F0242A050E4B
:1002E0002418D8A476EF81F078EF81F054EF81F0F4
:1002F00020C01DF0030E1D16D8B481EF81F083EFEE
:1003000081F08BEF81F00DC0D9FF0EC0DAFF2D0E0A
:10031000DF6E0D4A0E2A24C021F0BBEF81F0215080
:10032000020DD50EF324F66EFF0EF420F76EF86A78
:10033000000EF8220900F5CF03F00A00F5CF04F013
:1003400022C001F023C002F0ABEC82F001C008F043
:1003500002C009F0000E0B6E0A0E0A6EE5EC82F088
:100360000850300F246E0DC0D9FF0EC0DAFF24C034
:10037000DFFF0D4A0E2A21062128D8A4C2EF81F002
:10038000C4EF81F08FEF81F00FC0F6FF10C0F7FFD0
:100390000F4A102A000EF86E0800F5CF24F0245002
:1003A000D8A4D5EF81F0D7EF81F00AEF81F00DC02E
:1003B000D9FF0EC0DAFF000EDF6E1200000E0A6ECB
:1003C00008BEE7EF81F0E5EF81F0F1EF81F0081E64
:1003D000071E061E056C000E062207220822010ECB
:1003E0000A6E04BEF8EF81F0F6EF81F002EF82F0C2
:1003F000041E031E021E016C000E022203220422B0
:10040000010E0A1A000E0B6E000E0C6E000E0D6E21
:10041000000E0E6E0550061007100810D8B413EF2A
:1004200082F015EF82F04BEF82F0010E096E1FEFA4
:1004300082F0D8900536063607360836092A08AE07
:1004400024EF82F026EF82F019EF82F0D8900B367D
:100450000C360D360E360550015C0650025807501A
:10046000035808500458D8A038EF82F03AEF82F0D1
:1004700043EF82F00550015E0650025A0750035ABE
:100480000850045A0B80D8900832073206320532E1
:10049000092E26EF82F00A50D8B451EF82F053EFC4
:1004A00082F05BEF82F00E1E0D1E0C1E0B6C000E18
:1004B0000C220D220E220BC001F00CC002F00DC068
:1004C00003F00EC004F012000FC013F010C014F0BF
:1004D00011C015F012C016F0040ED8901336143661
:1004E00015361636E82E6DEF82F013508008016E37
:1004F000960E1454026E980E1554036E000E165488
:10050000046E0FC017F010C018F011C019F012C01F
:100510001AF0040ED8901736183619361A36E82E07
:100520008AEF82F017C005F018C006F019C007F076
:100530001AC008F0DEEC81F001C01BF002C01CF014
:100540001BC0AFFFAC84AC98AB8E948E949CAB88F0
:10055000AC8A04001200000E066E000E056E0350F9
:100560000410D8B4B6EF82F0B8EF82F0E0EF82F07A
:10057000010E076EC0EF82F0D89003360436072ACA
:1005800004AEC5EF82F0C7EF82F0BCEF82F0D890E6
:10059000053606360350015C04500258D8A0D3EF4C
:1005A00082F0D5EF82F0DAEF82F00350015E045062
:1005B000025A0580D89004320332072EC7EF82F02A
:1005C00005C001F006C002F012000A500B10D8B4AA
:1005D000ECEF82F0EEEF82F012EF83F0010E0C6E82
:1005E000F6EF82F0D8900A360B360C2A0BAEFBEFF2
:1005F00082F0FDEF82F0F2EF82F00A50085C0B50BF
:100600000958D8A006EF83F008EF83F00CEF83F0D1
:100610000A50085E0B50095AD8900B320A320C2E41
:10062000FDEF82F008C008F009C009F012008390C5
:10063000849484968498849A849C849E95909694BD
:100640009698969A969C969E0F0E8416300E8D1252
:10065000C9EC83F00F0E8416300E8D12C9EC83F0B6
:100660000F0E8416300E8D12C9EC83F00F0E841617
:100670008D8AC9EC83F0280EB6EC83F00C0EB6EC34
:1006800083F0010EB6EC83F0060EB6EC83F0120098
:100690006A0EF66E080EF76E010EF86E0900F5CFC1
:1006A0003BF00900F5CF3CF000EE60F08C0EEE6AF6
:1006B000E806FDE100EE2DF00E0EEE6AE806FDE123
:1006C000000100EF80F06EEF83F003C0D9FF04C09B
:1006D000DAFFDF50A3EC83F0034A042A03C0D9FFFA
:1006E00004C0DAFFDF50D8A478EF83F07AEF83F00C
:1006F00065EF83F01200036E09EC84F0D00EE8EC95
:1007000083F00350E8EC83F012EC84F0D10EE8ECB7
:1007100083F0DAEC83F0046E00EC84F004501200F5
:1007200062CF01F01F0E0116D8A499EF83F09BEF62
:1007300083F090EF83F064B4A0EF83F0A2EF83F036
:1007400090EF83F01200026E848484960F0E84165C
:100750000250F00B8D12C9EC83F00F0E8416023894
:10076000F00BF00B8D12C9EC83F01200026E849432
:1007700084960F0E84160250F00B8D12C9EC83F094
:100780000F0E84160238F00BF00B8D12C9EC83F0BB
:1007900012008380040E016E3E0EE82EFED7012E5D
:1007A000FCD78390040E016E3E0EE82EFED7012E7C
:1007B000FCD71200628664A0E0EF83F0E2EF83F0E2
:1007C000DBEF83F066CF02F090EC83F00250120072
:1007D000026E02C066FF64B0F0EF83F0F2EF83F0C8
:1007E000EBEF83F090EC83F01200016EACA2FBEF14
:1007F00083F0FDEF83F0F6EF83F001C0ADFF120050
:10080000628462B406EF84F008EF84F001EF84F0B4
:100810001200628062B00FEF84F011EF84F00AEFF3
:1008200084F01200628262B218EF84F01AEF84F052
:1008300013EF84F01200016E01380F0B026E0250AC
:100840003009026E02501200016E01500F0B026E51
:1008500002503009026E02501200949C948E9494BF
:0C0860001200010EB6EC83F01200200024
:06FFF800A1F4C4FDF8F3C2
:00000001FF
